:100000000C942A000C9447000C9447000C94470071
:100010000C9447000C9447000C9447000C94470044
:100020000C9447000C946E010C9447000C947D01D5
:100030000C9447000C9403010C9447000C94470067
:100040000C9447000C9447000C9447000C94470014
:100050000C94470011241FBECFE5D8E0DEBFCDBF12
:1000600013E0A0E6B0E0E6E2F1E202C005900D92F6
:10007000AA3BB107D9F724E0AAEBB3E001C01D9277
:10008000AF3BB207E1F70E94400E0C9491100C9424
:1000900000008FB9779BFECF0895BC9AC49A87B3AE
:1000A000886A87BB8DB180658DB9689A08950F9372
:1000B0001F93CF93DF93082F192FC0E0D0E0F801F2
:1000C00081918F010E9449002196C830D105B9F76E
:1000D000C39AC398DF91CF911F910F9108958FEF2D
:1000E00084BB85B315BA81B3806C81BB0895AF988A
:1000F0008DE990E00E945700A89A87EC90E0019764
:10010000F1F700C00000A89885E990E00E94570030
:10011000A99A87EC90E00197F1F700C00000A99838
:100120008DE890E00E945700AA9A87EC90E0019732
:10013000F1F700C00000AA9885E890E00E945700FF
:10014000AB9A87EC90E00197F1F700C00000AB9804
:100150008DE790E00E945700AC9A87EC90E0019701
:10016000F1F700C00000AC9885E790E00E945700CE
:10017000AD9A87EC90E00197F1F700C00000AD98D0
:100180008DE690E00E945700AE9A87EC90E00197D0
:10019000F1F700C00000AE9885E690E00E9457009D
:1001A000AF9A87EC90E00197F1F700C00000089546
:1001B0000F931F93CF93DF931DBC1CBCCCB5DDB553
:1001C0002FE632E143E85DE30E94840E0E94EC0ECC
:1001D0008B01C617D70738F40E9477008CB59DB500
:1001E00080179107C8F3DF91CF911F910F91089568
:1001F00010BC82E289B9599A80B5866880BD8AB1FF
:1002000088698AB908951F920F920FB60F92112430
:100210008F938CB18093BE038091BE03863071F1C1
:1002200068F48330F9F028F48130A9F08230F1F5D8
:1002300015C08430D9F08530C9F51CC08C3271F1FD
:1002400028F48730F9F0863189F524C0823451F1E1
:10025000883561F51BC01092BF032AC081E08093EE
:10026000BF0326C082E08093BF0322C083E0809357
:10027000BF031EC084E08093BF031AC085E0809353
:10028000BF0316C086E08093BF0312C082E0809354
:10029000A5000EC083E08093A5000AC084E080938F
:1002A000A50006C085E08093A50002C01092BF03A0
:1002B0008091BE038093BB038091BA038F5F8093CC
:1002C000BA038F910F900FBE0F901F90189589B7AA
:1002D000856089BF85E08EBD83BF08951F920F9210
:1002E0000FB60F9211248F9382B3805882BB8F91E7
:1002F0000F900FBE0F901F9018951F920F920FB680
:100300000F9211248F939F9392B380E4892782BB2D
:100310009F918F910F900FBE0F901F9018952F9265
:100320003F924F925F926F927F928F929F92AF9285
:10033000BF92CF92DF92EF92FF921F93CF93DF9302
:10034000CDB7DEB72C970FB6F894DEBF0FBECDBF8A
:100350008091BF03882309F456C08EC0EB85FC85CD
:100360001192FC87EB871D92EF81F8851192F88737
:10037000EF83FA011192AF01FB011192BF01F70166
:1003800011927F01F60111926F01F50111925F0147
:1003900001968830910511F73A87298760E070E06F
:1003A0008AEF93E40E94D80080E090E0E981FA812E
:1003B0004B815C8129853A856D817E81DA011D93AF
:1003C000AD01DB011D93BD011193D2011D932D01E0
:1003D000D1011D931D01D3011D933D01D4011D9336
:1003E0004D01D9011D939D0101968830910531F78A
:1003F00060E070E08AEF93E40E94D8008091BF0330
:10040000882311F039C01FEFEDE9F0E0FC83EB83A6
:1004100085E990E09E838D83ADE8B0E0BA83A9833F
:100420000F2EF5E84F2EF0E05F2EF02D0F2EFDE79A
:100430002F2EF0E03F2EF02D0F2EF5E76F2EF0E07F
:100440007F2EF02D0F2EFDE68F2EF0E09F2EF02D4B
:10045000E5E6F0E05F0164017301B101A2019D01D5
:10046000DC01EDE9F0E080E090E0FC87EB87388785
:100470002F8325E630E072CF2C960FB6F894DEBFBE
:100480000FBECDBFDF91CF911F91FF90EF90DF9016
:10049000CF90BF90AF909F908F907F906F905F9024
:1004A0004F903F902F900895833089F020F4813051
:1004B000D1F058F408C0853071F058F0863069F0FA
:1004C000873079F40CC081E0089584E0089588E0D5
:1004D000089580E1089580E2089580E4089580E819
:1004E000089580E0089582E00895CF93DF9321304E
:1004F00009F061C0433069F120F44130B1F0F8F403
:100500000AC04530D1F178F1463009F440C0473097
:1005100009F051C046C0C62FD0E00E945402C35615
:10052000DF4F9881892B8883B9C0C62FD0E00E9405
:100530005402CB56DF4F9881892B8883AFC0C62FDA
:10054000D0E00E945402C357DF4F9881892B8883E3
:10055000A5C0C62FD0E00E945402CB57DF4F988130
:10056000892B88839BC0C62FD0E00E945402C358B9
:10057000DF4F9881892B888391C0C62FD0E00E94DD
:100580005402CB58DF4F9881892B888387C0C62FB0
:10059000D0E00E945402C359DF4F9881892B888391
:1005A0007DC0C62FD0E00E945402CB59DF4F988106
:1005B000892B888373C0211171C04330A1F120F4CD
:1005C0004130C9F020F50BC0453009F444C0B8F102
:1005D000463009F44CC0473009F060C054C0C62F03
:1005E000D0E00E945402FE01E356FF4F80959081B7
:1005F0008923808353C0C62FD0E00E945402FE019D
:10060000EB56FF4F809590818923808347C0C62F8A
:10061000D0E00E945402FE01E357FF4F8095908185
:10062000892380833BC0C62FD0E00E945402FE0184
:10063000EB57FF4F80959081892380832FC0C62F71
:10064000D0E00E945402FE01E358FF4F8095908154
:100650008923808323C0C62FD0E00E945402FE016C
:10066000EB58FF4F809590818923808317C0C62F58
:10067000D0E00E945402FE01E359FF4F8095908123
:10068000892380830BC0C62FD0E00E945402FE0154
:10069000EB59FF4F8095908189238083DF91CF9123
:1006A00008950F931F93CF93DF93D82F10E000E0AE
:1006B0000CC021E04D2F6C2F812F0E947502CF5F5F
:1006C000C830B9F71F5F183011F0C02FF2CF60E0CB
:1006D00070E080E792E40E94D80010E000E00CC0D7
:1006E000202F4D2F6C2F812F0E947502CF5FC830B5
:1006F000B9F71F5F183011F0C02FF2CFDF91CF9103
:100700001F910F9108950F931F93CF93DF93D82FCD
:1007100010E000E00CC021E04C2F6D2F812F0E94D3
:100720007502CF5FC830B9F71F5F183011F0C02FC6
:10073000F2CF60E070E080E792E40E94D80010E021
:1007400000E00CC0202F4C2F6D2F812F0E947502CE
:10075000CF5FC830B9F71F5F183011F0C02FF2CF4C
:10076000DF91CF911F910F9108950F931F93CF9316
:10077000DF93D82F10E000E00CC021E04C2F612F58
:100780008D2F0E947502CF5FC830B9F71F5F1830F8
:1007900011F0C02FF2CF60E070E080E792E40E9499
:1007A000D80010E000E00CC0202F4C2F612F8D2FBF
:1007B0000E947502CF5FC830B9F71F5F183011F083
:1007C000C02FF2CFDF91CF911F910F9108958F929B
:1007D0009F92AF92BF92CF92DF92EF92FF920F93D0
:1007E0001F93CF93DF93162F833009F4E2C030F4C8
:1007F000813009F468C008F0A0C02EC0853009F42B
:1008000051C108F417C1863009F489C1873009F055
:10081000CCC1BFC1212F4C2F6D2F8F2D0E9475028F
:10082000CF5FC013F7CFDF5FD01711F0CE2DF2CF1F
:10083000F394F01202C003C0FC2CDD2DF7CF6091C1
:10084000640070E080E090E00E941D0F0E94D800DC
:100850000F5F093029F4A9C101E0C12CDC2CEC2C7C
:10086000101654F3ECCF212F4B2D6A2D892D0E94A9
:100870007502BA942B2D332727FD30952E153F0591
:1008800094F7AA942A2D332727FD30952E153F057E
:1008900014F0B02EE8CF9A94292D332727FD3095F8
:1008A0002E153F0514F403C09C2CAD2CF2CF6091A3
:1008B000640070E080E090E00E941D0F0E94D8006C
:1008C000219748F472C1C7E0D0E00F2EF7E0CF2E99
:1008D000F02DDC2C0C2D7E01C830D1052CF3E7CF98
:1008E000212F4A2D692D882D0E947502A394A012F4
:1008F000F7CF9A94292D332727FD30952E153F05E4
:1009000014F403C09C2CAD2CEBCF8394801203C055
:1009100006C08B2C7E01C830D105A4F3F6CF6091C0
:10092000640070E080E090E00E941D0F0E94D800FB
:100930000F5F2197093051F438C1C7E0D0E001E0E2
:10094000B12C0F2EF7E0CF2EF02DD12C10160CF37A
:10095000E6CF212F4A2D692D882D0E947502AA9479
:100960002A2D332727FD30952E153F0594F79394B4
:10097000901202C003C09C2CAD2CEBCF8A94282D82
:10098000332727FD30952E153F0514F404C08B2C1A
:1009900010168CF3F3CF6091640070E080E090E07B
:1009A0000E941D0F0E94D8000F5F2197093051F45B
:1009B000FCC0C7E0D0E001E00F2EF7E0BF2EF02D25
:1009C000C12CDB2C7E01C830D1050CF3E4CF212FE4
:1009D0004A2D692D882D0E947502AA942A2D33274D
:1009E00027FD30952E153F0594F79A94292D33272E
:1009F00027FD30952E153F0514F403C09C2CA02E26
:100A0000E6CF83948D1003C006C08B2C7E01C830C6
:100A1000D105A4F3F6CF6091640070E080E090E02F
:100A20000E941D0F0E94D800D394219789E0D8120C
:100A30000BC0BBC0C7E0D0E0DD24D394B12C0F2E97
:100A4000F7E0CF2EF02D0C2D1D14FCF2E4CF212F5A
:100A50004A2D692D882D0E947502A394A012F7CF0C
:100A60009394901202C003C09C2CAD2CF0CF8A94BA
:100A7000282D332727FD30952E153F0514F404C08B
:100A80008B2C10168CF3F3CF6091640070E080E043
:100A900090E00E941D0F0E94D8000F5F219709303F
:100AA00051F483C0C7E0D0E001E00F2EF7E0BF2E85
:100AB000F02DC12CDC2C7E01C830D1050CF3E4CF25
:100AC000AD2C212F4A2D692D882D0E947502A394EB
:100AD000A012F7CF9A94292D332727FD30952E1594
:100AE0003F051CF0101664F3F5CF8A94282D3327A8
:100AF00027FD30952E153F0514F403C08B2C9C2C3C
:100B0000F1CF6091640070E080E090E00E941D0FE2
:100B10000E94D8000F5F2197093051F446C0C7E00A
:100B2000D0E001E00F2EF7E0BF2EF02DCB2CD12C22
:100B30007E01C830D10514F3E4CFAD2C212F4A2D0E
:100B4000692D882D0E947502AA942A2D332727FD2E
:100B500030952E153F0594F79394901621F0C830E8
:100B6000D1055CF3F9CF8394801203C004C08B2CB1
:100B70007E019C2CF4CF6091640070E080E090E0F6
:100B80000E941D0F0E94D8000F5F2197093051F479
:100B90000CC0C7E0D0E001E0B12CCB2C0F2EF7E069
:100BA000DF2EF02D10161CF3E6CFDF91CF911F91B1
:100BB0000F91FF90EF90DF90CF90BF90AF909F90FC
:100BC0008F900895CF92DF92FF920F931F93CF9350
:100BD000DF930DE910E065E970E04DE850E025E8AD
:100BE00030E08DE790E0C5E7D0E0ADE6B0E00F2E55
:100BF000F5E6CF2EF0E0DF2EF02DF12CF80111926A
:100C00008F01FB011192BF01FA011192AF01F901AD
:100C100011929F01FC011192CF0119921D92F601D0
:100C200011926F01F394F8E0FF12E8CFDF91CF91BA
:100C30001F910F91FF90DF90CF9008957F928F9238
:100C40009F92AF92BF92CF92DF92EF92FF920F935B
:100C50001F93CF93DF93162F833009F4B8C028F485
:100C60008130C9F108F078C00CC0853009F434C176
:100C700008F4F0C0863009F46AC1873009F0E2C197
:100C8000A8C108E0C12CDC2CEC2C0E94E205101657
:100C90009CF015C0212F4C2F6D2F8F2D0E947502B7
:100CA000CF5FC013F7CFDF5FD01711F0CE2DF2CF9B
:100CB000F394F01202C003C0FC2CDD2DF7CF60913D
:100CC000640070E080E090E00E941D0F0E94D80058
:100CD0000150D9F6B7C1CFEFDFEF0F2EF7E0CF2EDF
:100CE000F02DDC2C0C2D0E94E2057E01C730D105D1
:100CF00014F124C0212F4B2D6A2D892D0E947502DD
:100D0000BA942B2D332727FD3095E216F30694F382
:100D1000AA942A2D332727FD3095E216F30614F402
:100D2000B02EE8CF9A94292D332727FD3095E2166F
:100D3000F30614F003C09C2CAD2CF2CF609164003C
:100D400070E080E090E00E941D0F0E94D800219684
:100D5000C730D10541F676C1CFEFDFEF08E0B12C07
:100D60000F2EF7E0CF2EF02DD12C0E94E2051016A9
:100D7000D4F01FC0212F4A2D692D882D0E947502A5
:100D8000A394A012F7CF9A94292D332727FD3095ED
:100D9000E216F30614F003C09C2CAD2CEBCF839429
:100DA000801203C006C08B2C7E01C730D105A4F38E
:100DB000F6CF6091640070E080E090E00E941D0F2B
:100DC0000E94D800015021960111CFCF3BC1CFEF37
:100DD000DFEF6894CC24C3F80F2EF7E0BF2EF02D80
:100DE000D12C0B2D7C2C0E94E2057E01C730D10551
:100DF000FCF022C0212F4A2D692D882D0E947502FA
:100E0000AA942A2D332727FD3095E216F30694F392
:100E10009394971002C003C09D2CA02EEBCF8A9410
:100E2000282D332727FD3095E216F30614F004C071
:100E30008B2C17148CF3F3CF6091640070E080E08A
:100E400090E00E941D0F0E94D800CA942196C11004
:100E5000C9CFF8C0CFEFDFEF6894DD24D3F8B12C11
:100E60000F2EF7E0CF2EF02D0C2D0E94E2051D1461
:100E7000FCF024C0212F4A2D692D882D0E94750277
:100E8000AA942A2D332727FD3095E216F30694F312
:100E90009A94292D332727FD3095E216F30614F096
:100EA00003C09C2CA02EE6CF83948D1003C006C0F7
:100EB0008B2C7E01C730D105A4F3F6CF609164007E
:100EC00070E080E090E00E941D0F0E94D800DA944C
:100ED0002196D110CACFB6C0CFEFDFEF08E00F2EBA
:100EE000F7E0BF2EF02DC12CDC2C0E94E2057E0124
:100EF000C730D105D4F01DC0212F4A2D692D882D72
:100F00000E947502A394A012F7CF9394901202C08E
:100F100003C09C2CAD2CF0CF8A94282D332727FDBD
:100F20003095E216F30614F004C08B2C10168CF3E7
:100F3000F3CF6091640070E080E090E00E941D0FAC
:100F40000E94D800015021960111CFCF7BC0CFEF76
:100F5000DFEF6894CC24C3F80F2EF7E0BF2EF02DFE
:100F6000DB2C00E08C2C0E94E2057E01C730D1050D
:100F7000FCF021C0A02E212F4A2D692D872D0E9423
:100F80007502A394A810F7CF9A94292D332727FD33
:100F90003095E216F3061CF4181464F3F5CF7A9436
:100FA000272D332727FD3095E216F30614F003C0F2
:100FB0007B2C9D2CF1CF6091640070E080E090E08C
:100FC0000E941D0F0E94D800CA942196C110CACF5A
:100FD00039C0CFEFDFEF08E0B12CCB2C0F2EF7E0BC
:100FE000DF2EF02D0E94E2051016DCF01EC0AD2CA5
:100FF000212F4A2D692D882D0E947502AA942A2D31
:10100000332727FD3095E216F30694F39394901658
:1010100021F0C730D1055CF3F9CF8394801203C06F
:1010200004C08B2C7E019C2CF4CF6091640070E096
:1010300080E090E00E941D0F0E94D8000150219690
:101040000111D0CFDF91CF911F910F91FF90EF90C1
:10105000DF90CF90BF90AF909F908F907F9008953A
:10106000CF92DF92EF92FF920F931F93CF93DF9374
:101070008C010E94E20582B790E00E9429101123A2
:10108000C4F18091BF038430A1F5C0E0D0E004C07A
:101090008091BF03843069F50E9424106C010E9486
:1010A00024107C01C60187709078992324F401975D
:1010B000886F9F6F019661E00E94E703C701877008
:1010C0009078992324F40197886F9F6F019661E0CF
:1010D0000E941E060E94E2056091640070E080E0BC
:1010E00090E00E941D0F0E94D80021960C171D074A
:1010F0007CF6DF91CF911F910F91FF90EF90DF90E1
:10110000CF900895CF92DF92EF92FF920F931F93AB
:10111000CF93DF937C010E94E20582B790E00E94AA
:101120002910FF206CF18091BF03833049F5C0E0A6
:10113000D0E004C08091BF03833011F50E942410D9
:101140006C010E9424108C01C6018770907899234D
:1011500024F40197886F9F6F019661E00E94E70376
:10116000C80187709078992324F40197886F9F6F46
:10117000019660E00E94E7032196EC16FD06D4F686
:10118000DF91CF911F910F91FF90EF90DF90CF9063
:101190000895AF92BF92DF92EF921F93CF93DF93A8
:1011A0005C010E94E2051A141B040CF090C08091AF
:1011B000BF03823009F08BC0C0E0D0E0DD24D394BF
:1011C0000F2EF6E0EF2EF02D05C08091BF03823088
:1011D00009F07DC08091BF03823009F473C045C01F
:1011E0008091BF03823009F040C0812F0E945103DB
:1011F0001F5F1830A9F739C08091BF038230C9F54D
:10120000812F0E9451031150B8F733C08091BF0362
:10121000823099F5812F0E9483031F5F1830B1F748
:101220002CC08091BF03823061F5812F0E9483031F
:101230001150B8F726C08091BF03823031F5812F5D
:101240000E94B5031F5F1830B1F71FC08091BF0324
:10125000823029F4812F0E94B5031150B8F72196EE
:10126000CA15DB0509F0B1CF32C08091BF038230CF
:1012700021F18091BF038230D9F08091BF03823089
:1012800091F08091BF03823049F08091BF0382309A
:1012900031F787E00E94B5031E2DD8CF80E00E9471
:1012A000B5031D2DC8CF87E00E9483031E2DB9CF43
:1012B00080E00E9483031D2DA9CF87E00E94510387
:1012C0001E2D9ACF80E00E9451031D2D89CFDF9102
:1012D000CF911F91EF90DF90BF90AF9008952F9224
:1012E0003F924F925F926F927F928F929F92AF92B6
:1012F000BF92CF92DF92EF92FF920F931F93CF9303
:10130000DF9300D000D0CDB7DEB72C0182B790E0DC
:101310000E9429100E94E205141415040CF098C0D4
:101320008091BF03813009F093C0812C912C0F2E46
:10133000F7E06F2E712CF02D212C312C3A8229826E
:1013400005C08091BF03813009F082C00E94241043
:101350008C010E942410B3010E94AB0F382F282E5D
:10136000C801B3010E94AB0F382E21E047E0632F84
:101370000E94750260E070E088EC92E40E94D80060
:101380008091BF03813009F056C005E910E00F2EAF
:10139000FDE9AF2EF0E0BF2EF02D4DE850E025E83E
:1013A00030E08DE790E065E770E0EDE6F0E00F2ECD
:1013B000F5E6CF2EF0E0DF2EF02DE980FA803C83B9
:1013C0002B839B01DA01AF0111C06091BF030F5F56
:1013D0001F4F1196EB81FC813196FC83EB830196C4
:1013E0002F5F3F4F4F5F5F4F613029F5F8016081FC
:1013F000F50161935F016C91F8016083EB81FC81E1
:1014000060816C93FC016081EB81FC816083F90158
:101410006081FC016083FA016081F9016083F6015B
:1014200061916F01FA016083FFEFEF1AFF0A68E034
:10143000E616F10451F620E047E0622D832D0E946C
:1014400075028FEF881A980A8414950409F079CFF1
:101450000F900F900F900F90DF91CF911F910F91F0
:10146000FF90EF90DF90CF90BF90AF909F908F90C4
:101470007F906F905F904F903F902F9008958430B1
:10148000A0F590E0E62FF0E0DC01AB59BF4FEE0F86
:10149000FF1FEE0FFF1FEE0FFF1FEF53FF4F2081C7
:1014A0002C93DC01A359BF4F21812C93DC01AB5855
:1014B000BF4F22812C93DC01A358BF4F23812C9373
:1014C000DC01AB57BF4F24812C93DC01A357BF4FE6
:1014D00025812C93DC01AB56BF4F26812C93DC0178
:1014E000A356BF4F27812C93089590E0E62FF0E09C
:1014F000DC01AB59BF4FEE0FFF1FEE0FFF1FEE0FCA
:10150000FF1FEF53FF4F20812C93DC01A359BF4FE6
:1015100021812C93DC01AB58BF4F22812C93DC013D
:10152000A358BF4F23812C93DC01AB57BF4F2481BD
:101530002C93DC01A357BF4F25812C93DC01AB56C4
:10154000BF4F26812C93DC01A356BF4F27812C93DC
:1015500008959F92AF92BF92CF92DF92EF92FF9247
:101560000F931F93CF93DF936B017C01942E809197
:10157000BF03853089F5AA24AA94BA2C0EEF1FEF79
:10158000C0E0D0E00AC08091BF0321960F5F1F4FDB
:101590009FEFA91AB90A8530F9F40E94E205C83014
:1015A00028F4692D70E0CE010E943F0A97E09A1559
:1015B00028F0692D70E0C5010E943F0A083028F428
:1015C000692D70E0C8010E943F0AC701B6010E9460
:1015D000D800CB30D105B9F6DF91CF911F910F9193
:1015E000FF90EF90DF90CF90BF90AF909F900895C5
:1015F0000F931F93CF93DF938823D1F09091BF0374
:101600009530B1F4C0ECD3E08150082F10E00F53B7
:101610001C4F04C08091BF03853051F4499160E0B4
:1016200070E088EC92E40E94A90AC017D10791F7F4
:10163000DF91CF911F910F9108952F923F924F927A
:101640005F926F927F928F929F92AF92BF92CF9252
:10165000DF92EF92FF920F931F93CF93DF93CDB75B
:10166000DEB729970FB6F894DEBF0FBECDBF029646
:1016700000E010E0762E872EA12CB12C3DC0108208
:10168000DA015D90AD01D6016C901B01220E331E74
:10169000D10113964C90D7019C90499C902C112419
:1016A000569C900C1124D10116966C90DC015C9034
:1016B000A92D659CA00D1124A1932F5F3F4F2330CE
:1016C0003105E9F60F5F1F4F039603301105A1F4B2
:1016D0008981FB0180838A8181838B8182838C81D4
:1016E00083838D8184838E8185838F8186838885A2
:1016F00087838985808717C0F801EE0FFF1FE00FF1
:10170000F11F21E030E02C0F3D1FE20FF31F472DAA
:10171000582D95016C01A2E0CA1AD1087C01B1E0F4
:10172000EB1AF108ACCF29960FB6F894DEBF0FBEC6
:10173000CDBFDF91CF911F910F91FF90EF90DF9080
:10174000CF90BF90AF909F908F907F906F905F9061
:101750004F903F902F9008952F923F924F925F921B
:101760006F927F928F929F92AF92BF92CF92DF92B1
:10177000EF92FF920F931F93CF93DF93CDB7DEB716
:1017800029970FB6F894DEBF0FBECDBF029600E0DA
:1017900010E0762E872EA12CB12C31C01082DA01F8
:1017A0005D90AD01D6016C901B01220E331ED1015C
:1017B00013964C90D7019C90499C902C1124569CD8
:1017C000900C1124D10116966C90DC015C90A92D2F
:1017D000659CA00D1124A1932F5F3F4F233031054D
:1017E000E9F60F5F1F4F03960330110541F4FE0128
:1017F00033966E5F7F4FAE01445F5F4F17C0F801B5
:10180000EE0FFF1FE00FF11F21E030E02C0F3D1F16
:10181000E20FF31F472D582D95016C01A2E0CA1A63
:10182000D1087C01B1E0EB1AF108B8CFCB010297E7
:101830009F0122503109D9012C912195DC012C9373
:10184000CB0101979F0121503109D9012C9121959C
:10185000DC012C9380818195DB018C9333966D5F45
:101860007F4FE417F50711F729960FB6F894DEBFFE
:101870000FBECDBFDF91CF911F910F91FF90EF90E1
:10188000DF90CF90BF90AF909F908F907F906F90A0
:101890005F904F903F902F9008952F923F924F92DC
:1018A0005F926F927F928F929F92AF92BF92CF92F0
:1018B000DF92EF92FF920F931F93CF93DF93CDB7F9
:1018C000DEB7C252D6400FB6F894DEBF0FBECDBF12
:1018D00082B790E00E94291089E0E6EAF0E0DE019C
:1018E000AC5FB94F01900D928A95E1F784E089834E
:1018F0008A838B8389E0EFEAF0E0DE01A35FB94FD2
:1019000001900D928A95E1F789E0E8EBF0E0DE01C5
:10191000AA5EB94F01900D928A95E1F7412CCC2433
:10192000C394D12C9E012D5F3F4FC15ED94F3983A7
:101930002883CF51D6400F2EF7E0EF2EF12CF02D5B
:10194000C15ED94F6880CF51D640C05ED94F588014
:10195000C052D6401E0134E0230E311C81E090E0DD
:101960008C0F9D1F0296CF5DD94F99838883C152FA
:10197000D64049C10E94E205C114D104D9F08E01BC
:101980000D5F1F4F4601880C991C8C0C9D1C800E0E
:10199000911ED8011197C801029721E0F8014081FA
:1019A0006C91DC018C910E9475020D5F1F4F081530
:1019B000190579F7411047C08601000F111F0C0D62
:1019C0001D1DE3E0F0E0EC0FFD1F0E0F1F1F0E9436
:1019D0002410B7010E94AB0FB82E0E942410B7014B
:1019E0000E94AB0F782E0E942410B7010E94AB0F0B
:1019F000A82EC114D10459F3262D352D6B2D772730
:101A000067FD7095872D992787FD90958A2C9924DD
:101A100087FC9094F901D90112974C9150E064171A
:101A2000750761F4D90111974C9150E0841795071F
:101A300029F4408150E08416950649F22D5F3F4F0E
:101A40002017310739F721E04A2D672D8B2D0E9491
:101A5000750260E070E08AE794E40E94D80080910B
:101A6000A5008330B9F020F4823009F0D2C006C05E
:101A70008430E1F0853009F0CCC024C0BE016C5F39
:101A8000794FCE01835F994F0E941D0B86E08093B2
:101A9000A500BFC0BE016C5F794FCE01835F994F37
:101AA0000E94AC0B86E08093A500B3C0BE016C5FC2
:101AB000794FCE018A5E994F0E941D0B86E080937C
:101AC000A500A7C0BE016C5F794FCE018A5E994F19
:101AD0000E94AC0B86E08093A5009BC0DC014D9179
:101AE000CD01DB012C91420F4083483014F010826D
:101AF00004C0408144230CF450836D5F7F4F3196C6
:101B00008215930559F7CF5FD94F4881C150D64010
:101B10004B1113C0CE5FD94F8881C250D640871178
:101B20000FC0CD5FD94F8881C350D640A8120BC0DB
:101B3000BFEFCB1ADB0A412C08C04424439405C0F4
:101B40004424439402C044244394E2E0CE16D104DA
:101B500008F469C0CE5FD94FA881C250D640BB27D8
:101B6000A7FDB095CD5FD94F0881C350D64011274E
:101B700007FD1095F101B60181E090E0552747FD82
:101B80005095208130E024173507A1F49C01220FE5
:101B9000331F280F391F88248394912C8C0E9D1E8F
:101BA000280D391DA217B30729F4A017B10711F4A6
:101BB0001092BF03019633968617970711F7FE011F
:101BC0003696C601880F991F8C0D9D1DCF5DD94F8C
:101BD00088809980C152D640880D991DDF011597E4
:101BE0002C91DF0112972C93DF0114972C91DF01C8
:101BF00011972C93DF0113972C9120833396E817CC
:101C0000F90761F710C08091BF03863009F4B2CEA6
:101C10001DC0CE010196BE016C5F794FFE01EF5FE2
:101C2000F94F57E05BCFCF5FD94F8881C150D64085
:101C30008983CE5FD94F8881C250D6408A83CD5FD9
:101C4000D94F8881C350D6408B83DDCFCE5DD94F2D
:101C50000FB6F894DEBF0FBECDBFDF91CF911F91BD
:101C60000F91FF90EF90DF90CF90BF90AF909F903B
:101C70008F907F906F905F904F903F902F9008953E
:101C800078940E94F8000E944D000E946F000E940C
:101C900067010E94E2058BE28093C0038EE280938D
:101CA000C10382E38093C2038091BF038330C1F0FC
:101CB00020F4813059F078F406C08530D9F0A8F0CE
:101CC0008630F9F41BC00E948F01EECF8CE390E0C8
:101CD0000E946F09E9CF8CE390E00E94C908E4CF2D
:101CE0008CE390E00E948208DFCF8CE390E00E94BA
:101CF0003008DACF83E00E94F80AD6CF0E944D0C5C
:101D0000D3CF1092BF03D0CF0CD0EBC0E3D040F0C4
:101D1000DAD030F021F45F3F19F0CCC0511115C179
:101D2000CFC0F0D098F39923C9F35523B1F3951B95
:101D3000550BBB27AA2762177307840738F09F5FEC
:101D40005F4F220F331F441FAA1FA9F333D00E2E5B
:101D50003AF0E0E830D091505040E695001CCAF7C8
:101D600029D0FE2F27D0660F771F881FBB1F26178D
:101D700037074807AB07B0E809F0BB0B802DBF0160
:101D8000FF2793585F4F2AF09E3F510568F092C09D
:101D9000DCC05F3FECF3983EDCF386957795679562
:101DA000B795F7959F5FC9F7880F911D9695879511
:101DB00097F90895E1E0660F771F881FBB1F621730
:101DC00073078407BA0720F0621B730B840BBA0BEE
:101DD000EE1F88F7E095089504D06894B111B5C05E
:101DE000089598D088F09F5790F0B92F9927B75150
:101DF000A0F0D1F0660F771F881F991F1AF0BA95CF
:101E0000C9F712C0B13081F09FD0B1E008959CC0F5
:101E1000672F782F8827B85F39F0B93FCCF38695C4
:101E200077956795B395D9F73EF490958095709521
:101E300061957F4F8F4F9F4F0895E89409C097FB9E
:101E40003EF490958095709561957F4F8F4F9F4F91
:101E50009923A9F0F92F96E9BB279395F6958795D5
:101E600077956795B795F111F8CFFAF4BB0F11F498
:101E700060FF1BC06F5F7F4F8F4F9F4F16C088233F
:101E800011F096E911C0772321F09EE8872F762F75
:101E900005C0662371F096E8862F70E060E02AF0B6
:101EA0009A95660F771F881FDAF7880F96958795A2
:101EB00097F9089597F99F6780E870E060E00895CA
:101EC0009FEF80EC089500240A9416161706180652
:101ED0000906089500240A9412161306140605062E
:101EE0000895092E0394000C11F4882352F0BB0FBF
:101EF00040F4BF2B11F460FF04C06F5F7F4F8F4F22
:101F00009F4F089557FD9058440F551F59F05F3F5C
:101F100071F04795880F97FB991F61F09F3F79F00B
:101F200087950895121613061406551FF2CF46958D
:101F3000F1DF08C0161617061806991FF1CF86950F
:101F40007105610508940895E894BB2766277727F3
:101F5000CB0197F9089597FB072E16F4009407D04C
:101F600077FD09D00E94BF0F07FC05D03EF4909585
:101F700081959F4F0895709561957F4F0895AA1B95
:101F8000BB1B51E107C0AA1FBB1FA617B70710F064
:101F9000A61BB70B881F991F5A95A9F78095909596
:101FA000BC01CD0108958F929F92AF92BF92CF92C4
:101FB000DF92EF92FF92CF93DF93EC0168817981FA
:101FC0008A819B81611571058105910521F464E287
:101FD00079ED8BE597E02DE133EF41E050E00E9491
:101FE000341049015A019B01AC01A7EAB1E40E94F7
:101FF00050106B017C01ACEEB4EFA50194010E947E
:102000005E10C60ED71EE81EF91EF7FE06C081E060
:10201000C81AD108E10880E8F80AC882D982EA82A1
:10202000FB82E894D7F8EE24FF24C601DF91CF911C
:10203000FF90EF90DF90CF90BF90AF909F908F90E8
:1020400008950E94D30F089580E690E00E94D30F78
:102050000895A0E0B0E08093600090936100A093A9
:102060006200B09363000895052E97FB16F4009468
:1020700007D057FD0DD00E94631007FC09D07EF4F5
:1020800090958095709561957F4F8F4F9F4F0895E4
:1020900050954095309521953F4F4F4F5F4F089594
:1020A0000E948510A59F900DB49F900DA49F800D58
:1020B000911D11240895B7FF0C9450100E945010E8
:1020C000821B930B0895A1E21A2EAA1BBB1BFD01D4
:1020D0000DC0AA1FBB1FEE1FFF1FA217B307E40707
:1020E000F50720F0A21BB30BE40BF50B661F771F5F
:1020F000881F991F1A9469F760957095809590953F
:102100009B01AC01BD01CF010895A29FB001B39F17
:10211000C001A39F01D0B29F700D811D1124911D9C
:062120000895F894FFCFC2
:10212600010000003FFFFFFFFFFFFFFFFFFFFFFF74
:10213600FFFFFFFFFFFFFFFFFFFFFFFFFFFFFFFFA9
:10214600FFFFFFFFFFFFFFFFFFFFFFFFFFFFFFFF99
:10215600FFFFFFFFFFFFFFFFFFFFFFFFFFFFFFFF89
:10216600FFFFFFFFFF060100000001000000010065
:102176000001000100FF000000FF00010000000058
:102186000100000000000000000808080808000818
:1021960000141414000000000014143E143E14141D
:1021A60000083C0A1C281E080006261008043230C7
:1021B600000C120A042A122C000C0804000000006D
:1021C6000010080404040810000408101010080485
:1021D6000000082A1C2A0800000008083E0808001B
:1021E60000000000000C0804000000003E00000093
:1021F6000000000000000C0C000020100804020083
:10220600001C22322A26221C00080C080808081C7A
:10221600001C22201008043E003E10081020221C3C
:1022260000101814123E1010003E021E2020221C20
:10223600001804021E22221C003E2010080404047A
:10224600001C22221C22221C001C22223C20100CD4
:1022560000000C0C000C0C0000000C0C000C080418
:1022660000100804020408100000003E003E0000B2
:102276000004081020100804001C22201008000882
:10228600001C22202C2A2A1C001C2222223E22224A
:10229600001E22221E22221E001C22020202221CD4
:1022A600000E12222222120E003E02021E02023EE0
:1022B600003E02021E020202001C22023A22223CB8
:1022C600002222223E222222001C08080808081C9E
:1022D600003810101010120C0022120A060A1222E0
:1022E600000202020202023E0022362A2A2222228C
:1022F600002222262A322222001C22222222221CEC
:10230600001E22221E020202001C2222222A122C57
:10231600001E22221E0A1222003C02021C20201E3F
:10232600003E080808080808002222222222221C51
:102336000022222222221408002222222A2A2A14D9
:10234600002222140814222200222222140808083D
:10235600003E20100804023E001C04040404041C71
:102366000000020408102000001C10101010101CA1
:102376000008142200000000000000000000003EDB
:1023860000040810000000000000001C203C223C55
:102396000002021A2622221E0000001C0202221C33
:1023A6000020202C3222223C0000001C223E021C6F
:1023B600001824040E04040400003C22223C201CC5
:1023C6000002021A262222220008000C0808081C15
:1023D600001000181010120C000202120A060A124F
:1023E600000C08080808081C000000162A2A2222E9
:1023F6000000001A262222220000001C2222221C93
:102406000000001E221E02020000002C323C20208A
:102416000000001A260202020000001C021C201EF8
:102426000004040E04042418000000222222322C88
:10243600000000222222140800000022222A2A1468
:10244600000000221408142200000022223C201C56
:102456000000003E1008043E00100808040808109A
:1024660000080808080808080004080810080804F6
:0A247600000000002C12000000001E
:00000001FF
